{
  "address": "0x5FC8d32690cc91D4c39d9d3abcBD16989F875707",
  "abi": [
    {
      "inputs": [
        {
          "internalType": "address",
          "name": "vrfCoordinatorV2",
          "type": "address"
        },
        {
          "internalType": "uint64",
          "name": "subscriptionId",
          "type": "uint64"
        },
        {
          "internalType": "bytes32",
          "name": "gasLane",
          "type": "bytes32"
        },
        {
          "internalType": "uint256",
          "name": "interval",
          "type": "uint256"
        },
        {
          "internalType": "uint256",
          "name": "entranceFee",
          "type": "uint256"
        },
        {
          "internalType": "uint32",
          "name": "callbackGasLimit",
          "type": "uint32"
        }
      ],
      "stateMutability": "nonpayable",
      "type": "constructor"
    },
    {
      "inputs": [],
      "name": "Lottery__LotteryNotOpen",
      "type": "error"
    },
    {
      "inputs": [],
      "name": "Lottery__SendMoreToEnterLottery",
      "type": "error"
    },
    {
      "inputs": [],
      "name": "Lottery__TransferFailed",
      "type": "error"
    },
    {
      "inputs": [
        {
          "internalType": "uint256",
          "name": "currentBalance",
          "type": "uint256"
        },
        {
          "internalType": "uint256",
          "name": "numPlayers",
          "type": "uint256"
        },
        {
          "internalType": "uint256",
          "name": "lotteryState",
          "type": "uint256"
        }
      ],
      "name": "Lottery__UpkeepNotNeeded",
      "type": "error"
    },
    {
      "inputs": [
        {
          "internalType": "address",
          "name": "have",
          "type": "address"
        },
        {
          "internalType": "address",
          "name": "want",
          "type": "address"
        }
      ],
      "name": "OnlyCoordinatorCanFulfill",
      "type": "error"
    },
    {
      "anonymous": false,
      "inputs": [
        {
          "indexed": true,
          "internalType": "address",
          "name": "player",
          "type": "address"
        }
      ],
      "name": "LotteryEnter",
      "type": "event"
    },
    {
      "anonymous": false,
      "inputs": [
        {
          "indexed": true,
          "internalType": "uint256",
          "name": "requestId",
          "type": "uint256"
        }
      ],
      "name": "RequestedLotteryWinner",
      "type": "event"
    },
    {
      "anonymous": false,
      "inputs": [
        {
          "indexed": true,
          "internalType": "address",
          "name": "player",
          "type": "address"
        }
      ],
      "name": "WinnerPicked",
      "type": "event"
    },
    {
      "anonymous": false,
      "inputs": [
        {
          "indexed": false,
          "internalType": "string",
          "name": "food",
          "type": "string"
        }
      ],
      "name": "newFoodieAdded",
      "type": "event"
    },
    {
      "inputs": [
        {
          "internalType": "string",
          "name": "_food",
          "type": "string"
        }
      ],
      "name": "addFoodie",
      "outputs": [],
      "stateMutability": "nonpayable",
      "type": "function"
    },
    {
      "inputs": [
        {
          "internalType": "bytes",
          "name": "",
          "type": "bytes"
        }
      ],
      "name": "checkUpkeep",
      "outputs": [
        {
          "internalType": "bool",
          "name": "upkeepNeeded",
          "type": "bool"
        },
        {
          "internalType": "bytes",
          "name": "",
          "type": "bytes"
        }
      ],
      "stateMutability": "view",
      "type": "function"
    },
    {
      "inputs": [],
      "name": "enterLottery",
      "outputs": [],
      "stateMutability": "payable",
      "type": "function"
    },
    {
      "inputs": [
        {
          "internalType": "uint256",
          "name": "index",
          "type": "uint256"
        }
      ],
      "name": "getDonator",
      "outputs": [
        {
          "internalType": "address",
          "name": "",
          "type": "address"
        }
      ],
      "stateMutability": "view",
      "type": "function"
    },
    {
      "inputs": [],
      "name": "getEntranceFee",
      "outputs": [
        {
          "internalType": "uint256",
          "name": "",
          "type": "uint256"
        }
      ],
      "stateMutability": "view",
      "type": "function"
    },
    {
      "inputs": [],
      "name": "getInterval",
      "outputs": [
        {
          "internalType": "uint256",
          "name": "",
          "type": "uint256"
        }
      ],
      "stateMutability": "view",
      "type": "function"
    },
    {
      "inputs": [],
      "name": "getLastTimeStamp",
      "outputs": [
        {
          "internalType": "uint256",
          "name": "",
          "type": "uint256"
        }
      ],
      "stateMutability": "view",
      "type": "function"
    },
    {
      "inputs": [],
      "name": "getLotteryState",
      "outputs": [
        {
          "internalType": "enum DLottery.LotteryState",
          "name": "",
          "type": "uint8"
        }
      ],
      "stateMutability": "view",
      "type": "function"
    },
    {
      "inputs": [],
      "name": "getNumWords",
      "outputs": [
        {
          "internalType": "uint256",
          "name": "",
          "type": "uint256"
        }
      ],
      "stateMutability": "pure",
      "type": "function"
    },
    {
      "inputs": [],
      "name": "getNumberOfDonators",
      "outputs": [
        {
          "internalType": "uint256",
          "name": "",
          "type": "uint256"
        }
      ],
      "stateMutability": "view",
      "type": "function"
    },
    {
      "inputs": [],
      "name": "getNumberOfFoodies",
      "outputs": [
        {
          "internalType": "uint256",
          "name": "",
          "type": "uint256"
        }
      ],
      "stateMutability": "view",
      "type": "function"
    },
    {
      "inputs": [],
      "name": "getRecentWinner",
      "outputs": [
        {
          "internalType": "address",
          "name": "",
          "type": "address"
        }
      ],
      "stateMutability": "view",
      "type": "function"
    },
    {
      "inputs": [],
      "name": "getRequestConfirmations",
      "outputs": [
        {
          "internalType": "uint256",
          "name": "",
          "type": "uint256"
        }
      ],
      "stateMutability": "pure",
      "type": "function"
    },
    {
      "inputs": [
        {
          "internalType": "bytes",
          "name": "",
          "type": "bytes"
        }
      ],
      "name": "performUpkeep",
      "outputs": [],
      "stateMutability": "nonpayable",
      "type": "function"
    },
    {
      "inputs": [
        {
          "internalType": "uint256",
          "name": "requestId",
          "type": "uint256"
        },
        {
          "internalType": "uint256[]",
          "name": "randomWords",
          "type": "uint256[]"
        }
      ],
      "name": "rawFulfillRandomWords",
      "outputs": [],
      "stateMutability": "nonpayable",
      "type": "function"
    }
  ],
  "transactionHash": "0xcafa9ad96b53819546524a1997563da79317b51caa0051c3eede7a66e9c0a85c",
  "args": [
    "0xe7f1725E7734CE288F8367e1Bb143E90bb3F0512",
    "1",
    "0xd89b2bf150e3b9e13446986e571fb9cab24b13cea0a43ea20a6049a85cc807cc",
    "30",
    "100000000000000000",
    "500000"
  ],
  "numDeployments": 1,
  "solcInputHash": "11f23f2d320effba00ec592eace1ec91",
  "bytecode": "0x6101406040523480156200001257600080fd5b5060405162001bed38038062001bed8339818101604052810190620000389190620001ab565b858073ffffffffffffffffffffffffffffffffffffffff1660808173ffffffffffffffffffffffffffffffffffffffff1660601b81525050508573ffffffffffffffffffffffffffffffffffffffff1660a08173ffffffffffffffffffffffffffffffffffffffff1660601b815250508360e081815250508261012081815250508467ffffffffffffffff1660c08167ffffffffffffffff1660c01b81525050816003819055506000600660006101000a81548160ff02191690836001811115620001085762000107620002b3565b5b0217905550426000819055508063ffffffff166101008163ffffffff1660e01b8152505050505050505062000369565b6000815190506200014981620002e7565b92915050565b600081519050620001608162000301565b92915050565b60008151905062000177816200031b565b92915050565b6000815190506200018e8162000335565b92915050565b600081519050620001a5816200034f565b92915050565b60008060008060008060c08789031215620001cb57620001ca620002e2565b5b6000620001db89828a0162000138565b9650506020620001ee89828a0162000194565b95505060406200020189828a016200014f565b94505060606200021489828a0162000166565b93505060806200022789828a0162000166565b92505060a06200023a89828a016200017d565b9150509295509295509295565b6000620002548262000265565b9050919050565b6000819050919050565b600073ffffffffffffffffffffffffffffffffffffffff82169050919050565b6000819050919050565b600063ffffffff82169050919050565b600067ffffffffffffffff82169050919050565b7f4e487b7100000000000000000000000000000000000000000000000000000000600052602160045260246000fd5b600080fd5b620002f28162000247565b8114620002fe57600080fd5b50565b6200030c816200025b565b81146200031857600080fd5b50565b620003268162000285565b81146200033257600080fd5b50565b62000340816200028f565b81146200034c57600080fd5b50565b6200035a816200029f565b81146200036657600080fd5b50565b60805160601c60a05160601c60c05160c01c60e0516101005160e01c6101205161181a620003d3600039600081816106f401526107e5015260006105720152600061052e0152600061054f015260006104f201526000818161037c01526103d0015261181a6000f3fe6080604052600436106100e85760003560e01c80635f1b0fd81161008a57806391ad27b41161005957806391ad27b4146102e7578063c1af578514610312578063c1c244e81461031c578063ec6c4aa514610347576100e8565b80635f1b0fd8146102165780636b68c03c146102415780636e04ff0d1461026c5780637b66e17f146102aa576100e8565b8063473f1ddc116100c6578063473f1ddc1461016a57806353a2c19a1461019557806358f3bf2c146101c05780635d1471d2146101eb576100e8565b806309bc33a7146100ed5780631fe543e3146101185780634585e33b14610141575b600080fd5b3480156100f957600080fd5b50610102610370565b60405161010f9190611372565b60405180910390f35b34801561012457600080fd5b5061013f600480360381019061013a91906110f0565b61037a565b005b34801561014d57600080fd5b5061016860048036038101906101639190610fb7565b61043a565b005b34801561017657600080fd5b5061017f61063a565b60405161018c919061126e565b60405180910390f35b3480156101a157600080fd5b506101aa610664565b6040516101b79190611372565b60405180910390f35b3480156101cc57600080fd5b506101d5610673565b6040516101e29190611372565b60405180910390f35b3480156101f757600080fd5b50610200610680565b60405161020d9190611372565b60405180910390f35b34801561022257600080fd5b5061022b61068d565b6040516102389190611372565b60405180910390f35b34801561024d57600080fd5b5061025661069a565b6040516102639190611335565b60405180910390f35b34801561027857600080fd5b50610293600480360381019061028e9190611004565b6106b1565b6040516102a19291906112b2565b60405180910390f35b3480156102b657600080fd5b506102d160048036038101906102cc9190611096565b610799565b6040516102de919061126e565b60405180910390f35b3480156102f357600080fd5b506102fc6107e1565b6040516103099190611372565b60405180910390f35b61031a610809565b005b34801561032857600080fd5b5061033161095a565b60405161033e9190611372565b60405180910390f35b34801561035357600080fd5b5061036e6004803603810190610369919061104d565b610963565b005b6000600354905090565b7f000000000000000000000000000000000000000000000000000000000000000073ffffffffffffffffffffffffffffffffffffffff163373ffffffffffffffffffffffffffffffffffffffff161461042c57337f00000000000000000000000000000000000000000000000000000000000000006040517f1cf993f4000000000000000000000000000000000000000000000000000000008152600401610423929190611289565b60405180910390fd5b6104368282610a59565b5050565b6000610454604051806020016040528060008152506106b1565b509050806104c35747600480549050600660009054906101000a900460ff166001811115610485576104846116cb565b5b6040517f6e195f250000000000000000000000000000000000000000000000000000000081526004016104ba9392919061138d565b60405180910390fd5b6001600660006101000a81548160ff021916908360018111156104e9576104e86116cb565b5b021790555060007f000000000000000000000000000000000000000000000000000000000000000073ffffffffffffffffffffffffffffffffffffffff16635d3b1d307f00000000000000000000000000000000000000000000000000000000000000007f000000000000000000000000000000000000000000000000000000000000000060037f000000000000000000000000000000000000000000000000000000000000000060016040518663ffffffff1660e01b81526004016105b39594939291906112e2565b602060405180830381600087803b1580156105cd57600080fd5b505af11580156105e1573d6000803e3d6000fd5b505050506040513d601f19601f8201168201806040525081019061060591906110c3565b9050807febf56642252004c18a776f30d528e7a0ce8c5db14b6596fb6550f630c8a24c6c60405160405180910390a250505050565b6000600160009054906101000a900473ffffffffffffffffffffffffffffffffffffffff16905090565b6000600163ffffffff16905090565b6000600580549050905090565b6000600480549050905090565b6000600361ffff16905090565b6000600660009054906101000a900460ff16905090565b600060606000600660009054906101000a900460ff1660018111156106d9576106d86116cb565b5b600060018111156106ed576106ec6116cb565b5b14905060007f00000000000000000000000000000000000000000000000000000000000000006000544261072191906114ba565b119050600080600480549050119050600080471190508280156107415750835b801561074a5750805b80156107535750815b9550856040518060400160405280600381526020017f30783000000000000000000000000000000000000000000000000000000000008152509550955050505050915091565b6000600482815481106107af576107ae611729565b5b9060005260206000200160009054906101000a900473ffffffffffffffffffffffffffffffffffffffff169050919050565b60007f0000000000000000000000000000000000000000000000000000000000000000905090565b600354341015610845576040517fa4078c2400000000000000000000000000000000000000000000000000000000815260040160405180910390fd5b60006001811115610859576108586116cb565b5b600660009054906101000a900460ff16600181111561087b5761087a6116cb565b5b146108b2576040517f823ea8bb00000000000000000000000000000000000000000000000000000000815260040160405180910390fd5b6004339080600181540180825580915050600190039060005260206000200160009091909190916101000a81548173ffffffffffffffffffffffffffffffffffffffff021916908373ffffffffffffffffffffffffffffffffffffffff1602179055503373ffffffffffffffffffffffffffffffffffffffff167f1d64fb5ba9f2548c5b98468d58f25b87b9e866afee0122e92d9fe722bf85076c60405160405180910390a2565b60008054905090565b600560405180604001604052808381526020013373ffffffffffffffffffffffffffffffffffffffff16815250908060018154018082558091505060019003906000526020600020906002020160009091909190915060008201518160000190805190602001906109d5929190610c8c565b5060208201518160010160006101000a81548173ffffffffffffffffffffffffffffffffffffffff021916908373ffffffffffffffffffffffffffffffffffffffff16021790555050507fccf86efcc90097a2d5a29c8e393a02ca85d56e446d6817e7fdb9b0870030e7e581604051610a4e9190611350565b60405180910390a150565b600060048054905082600081518110610a7557610a74611729565b5b6020026020010151610a87919061163c565b9050600060048281548110610a9f57610a9e611729565b5b9060005260206000200160009054906101000a900473ffffffffffffffffffffffffffffffffffffffff16905080600160006101000a81548173ffffffffffffffffffffffffffffffffffffffff021916908373ffffffffffffffffffffffffffffffffffffffff160217905550600067ffffffffffffffff811115610b2857610b27611758565b5b604051908082528060200260200182016040528015610b565781602001602082028036833780820191505090505b5060049080519060200190610b6c929190610d12565b506000600660006101000a81548160ff02191690836001811115610b9357610b926116cb565b5b02179055504260008190555060008173ffffffffffffffffffffffffffffffffffffffff1647604051610bc590611259565b60006040518083038185875af1925050503d8060008114610c02576040519150601f19603f3d011682016040523d82523d6000602084013e610c07565b606091505b5050905080610c42576040517f1c94012000000000000000000000000000000000000000000000000000000000815260040160405180910390fd5b8173ffffffffffffffffffffffffffffffffffffffff167f5b690ec4a06fe979403046eaeea5b3ce38524683c3001f662c8b5a829632f7df60405160405180910390a25050505050565b828054610c98906115d9565b90600052602060002090601f016020900481019282610cba5760008555610d01565b82601f10610cd357805160ff1916838001178555610d01565b82800160010185558215610d01579182015b82811115610d00578251825591602001919060010190610ce5565b5b509050610d0e9190610d9c565b5090565b828054828255906000526020600020908101928215610d8b579160200282015b82811115610d8a5782518260006101000a81548173ffffffffffffffffffffffffffffffffffffffff021916908373ffffffffffffffffffffffffffffffffffffffff16021790555091602001919060010190610d32565b5b509050610d989190610d9c565b5090565b5b80821115610db5576000816000905550600101610d9d565b5090565b6000610dcc610dc7846113e9565b6113c4565b90508083825260208201905082856020860282011115610def57610dee611791565b5b60005b85811015610e1f5781610e058882610f8d565b845260208401935060208301925050600181019050610df2565b5050509392505050565b6000610e3c610e3784611415565b6113c4565b905082815260208101848484011115610e5857610e57611796565b5b610e63848285611597565b509392505050565b6000610e7e610e7984611446565b6113c4565b905082815260208101848484011115610e9a57610e99611796565b5b610ea5848285611597565b509392505050565b600082601f830112610ec257610ec161178c565b5b8135610ed2848260208601610db9565b91505092915050565b60008083601f840112610ef157610ef061178c565b5b8235905067ffffffffffffffff811115610f0e57610f0d611787565b5b602083019150836001820283011115610f2a57610f29611791565b5b9250929050565b600082601f830112610f4657610f4561178c565b5b8135610f56848260208601610e29565b91505092915050565b600082601f830112610f7457610f7361178c565b5b8135610f84848260208601610e6b565b91505092915050565b600081359050610f9c816117cd565b92915050565b600081519050610fb1816117cd565b92915050565b60008060208385031215610fce57610fcd6117a0565b5b600083013567ffffffffffffffff811115610fec57610feb61179b565b5b610ff885828601610edb565b92509250509250929050565b60006020828403121561101a576110196117a0565b5b600082013567ffffffffffffffff8111156110385761103761179b565b5b61104484828501610f31565b91505092915050565b600060208284031215611063576110626117a0565b5b600082013567ffffffffffffffff8111156110815761108061179b565b5b61108d84828501610f5f565b91505092915050565b6000602082840312156110ac576110ab6117a0565b5b60006110ba84828501610f8d565b91505092915050565b6000602082840312156110d9576110d86117a0565b5b60006110e784828501610fa2565b91505092915050565b60008060408385031215611107576111066117a0565b5b600061111585828601610f8d565b925050602083013567ffffffffffffffff8111156111365761113561179b565b5b61114285828601610ead565b9150509250929050565b611155816114ee565b82525050565b61116481611500565b82525050565b6111738161150c565b82525050565b600061118482611477565b61118e818561148d565b935061119e8185602086016115a6565b6111a7816117a5565b840191505092915050565b6111bb81611585565b82525050565b60006111cc82611482565b6111d681856114a9565b93506111e68185602086016115a6565b6111ef816117a5565b840191505092915050565b600061120760008361149e565b9150611212826117b6565b600082019050919050565b61122681611529565b82525050565b61123581611557565b82525050565b61124481611561565b82525050565b61125381611571565b82525050565b6000611264826111fa565b9150819050919050565b6000602082019050611283600083018461114c565b92915050565b600060408201905061129e600083018561114c565b6112ab602083018461114c565b9392505050565b60006040820190506112c7600083018561115b565b81810360208301526112d98184611179565b90509392505050565b600060a0820190506112f7600083018861116a565b611304602083018761124a565b611311604083018661121d565b61131e606083018561123b565b61132b608083018461123b565b9695505050505050565b600060208201905061134a60008301846111b2565b92915050565b6000602082019050818103600083015261136a81846111c1565b905092915050565b6000602082019050611387600083018461122c565b92915050565b60006060820190506113a2600083018661122c565b6113af602083018561122c565b6113bc604083018461122c565b949350505050565b60006113ce6113df565b90506113da828261160b565b919050565b6000604051905090565b600067ffffffffffffffff82111561140457611403611758565b5b602082029050602081019050919050565b600067ffffffffffffffff8211156114305761142f611758565b5b611439826117a5565b9050602081019050919050565b600067ffffffffffffffff82111561146157611460611758565b5b61146a826117a5565b9050602081019050919050565b600081519050919050565b600081519050919050565b600082825260208201905092915050565b600081905092915050565b600082825260208201905092915050565b60006114c582611557565b91506114d083611557565b9250828210156114e3576114e261166d565b5b828203905092915050565b60006114f982611537565b9050919050565b60008115159050919050565b6000819050919050565b6000819050611524826117b9565b919050565b600061ffff82169050919050565b600073ffffffffffffffffffffffffffffffffffffffff82169050919050565b6000819050919050565b600063ffffffff82169050919050565b600067ffffffffffffffff82169050919050565b600061159082611516565b9050919050565b82818337600083830152505050565b60005b838110156115c45780820151818401526020810190506115a9565b838111156115d3576000848401525b50505050565b600060028204905060018216806115f157607f821691505b60208210811415611605576116046116fa565b5b50919050565b611614826117a5565b810181811067ffffffffffffffff8211171561163357611632611758565b5b80604052505050565b600061164782611557565b915061165283611557565b9250826116625761166161169c565b5b828206905092915050565b7f4e487b7100000000000000000000000000000000000000000000000000000000600052601160045260246000fd5b7f4e487b7100000000000000000000000000000000000000000000000000000000600052601260045260246000fd5b7f4e487b7100000000000000000000000000000000000000000000000000000000600052602160045260246000fd5b7f4e487b7100000000000000000000000000000000000000000000000000000000600052602260045260246000fd5b7f4e487b7100000000000000000000000000000000000000000000000000000000600052603260045260246000fd5b7f4e487b7100000000000000000000000000000000000000000000000000000000600052604160045260246000fd5b600080fd5b600080fd5b600080fd5b600080fd5b600080fd5b600080fd5b6000601f19601f8301169050919050565b50565b600281106117ca576117c96116cb565b5b50565b6117d681611557565b81146117e157600080fd5b5056fea26469706673582212209527e7656f786dcdd19c13364ed7c450577e306e7f443b0bd64c337ac4ad859e64736f6c63430008070033",
  "devdoc": {
    "kind": "dev",
    "methods": {
      "performUpkeep(bytes)": {
        "details": "Once `checkUpkeep` is returning `true`, this function is called and it kicks off a Chainlink VRF call to get a random winner."
      }
    },
    "version": 1
  },
  "userdoc": {
    "kind": "user",
    "methods": {
      "getLotteryState()": {
        "notice": "Getter Functions "
      }
    },
    "version": 1
  },
  "storageLayout": {
    "storage": [
      {
        "astId": 385,
        "contract": "contracts/DLottery.sol:DLottery",
        "label": "s_lastTimeStamp",
        "offset": 0,
        "slot": "0",
        "type": "t_uint256"
      },
      {
        "astId": 387,
        "contract": "contracts/DLottery.sol:DLottery",
        "label": "s_recentWinner",
        "offset": 0,
        "slot": "1",
        "type": "t_address"
      },
      {
        "astId": 389,
        "contract": "contracts/DLottery.sol:DLottery",
        "label": "s_currentWinner",
        "offset": 0,
        "slot": "2",
        "type": "t_address"
      },
      {
        "astId": 391,
        "contract": "contracts/DLottery.sol:DLottery",
        "label": "i_entranceFee",
        "offset": 0,
        "slot": "3",
        "type": "t_uint256"
      },
      {
        "astId": 394,
        "contract": "contracts/DLottery.sol:DLottery",
        "label": "s_donators",
        "offset": 0,
        "slot": "4",
        "type": "t_array(t_address_payable)dyn_storage"
      },
      {
        "astId": 398,
        "contract": "contracts/DLottery.sol:DLottery",
        "label": "s_foodies",
        "offset": 0,
        "slot": "5",
        "type": "t_array(t_struct(Foodie)422_storage)dyn_storage"
      },
      {
        "astId": 401,
        "contract": "contracts/DLottery.sol:DLottery",
        "label": "s_lotteryState",
        "offset": 0,
        "slot": "6",
        "type": "t_enum(LotteryState)366"
      }
    ],
    "types": {
      "t_address": {
        "encoding": "inplace",
        "label": "address",
        "numberOfBytes": "20"
      },
      "t_address_payable": {
        "encoding": "inplace",
        "label": "address payable",
        "numberOfBytes": "20"
      },
      "t_array(t_address_payable)dyn_storage": {
        "base": "t_address_payable",
        "encoding": "dynamic_array",
        "label": "address payable[]",
        "numberOfBytes": "32"
      },
      "t_array(t_struct(Foodie)422_storage)dyn_storage": {
        "base": "t_struct(Foodie)422_storage",
        "encoding": "dynamic_array",
        "label": "struct DLottery.Foodie[]",
        "numberOfBytes": "32"
      },
      "t_enum(LotteryState)366": {
        "encoding": "inplace",
        "label": "enum DLottery.LotteryState",
        "numberOfBytes": "1"
      },
      "t_string_storage": {
        "encoding": "bytes",
        "label": "string",
        "numberOfBytes": "32"
      },
      "t_struct(Foodie)422_storage": {
        "encoding": "inplace",
        "label": "struct DLottery.Foodie",
        "members": [
          {
            "astId": 419,
            "contract": "contracts/DLottery.sol:DLottery",
            "label": "food",
            "offset": 0,
            "slot": "0",
            "type": "t_string_storage"
          },
          {
            "astId": 421,
            "contract": "contracts/DLottery.sol:DLottery",
            "label": "owner",
            "offset": 0,
            "slot": "1",
            "type": "t_address"
          }
        ],
        "numberOfBytes": "64"
      },
      "t_uint256": {
        "encoding": "inplace",
        "label": "uint256",
        "numberOfBytes": "32"
      }
    }
  }
}