{
  "address": "0x0165878A594ca255338adfa4d48449f69242Eb8F",
  "abi": [
    {
      "inputs": [
        {
          "internalType": "address",
          "name": "vrfCoordinatorV2",
          "type": "address"
        },
        {
          "internalType": "uint64",
          "name": "subscriptionId",
          "type": "uint64"
        },
        {
          "internalType": "bytes32",
          "name": "gasLane",
          "type": "bytes32"
        },
        {
          "internalType": "uint256",
          "name": "interval",
          "type": "uint256"
        },
        {
          "internalType": "uint256",
          "name": "entranceFee",
          "type": "uint256"
        },
        {
          "internalType": "uint32",
          "name": "callbackGasLimit",
          "type": "uint32"
        }
      ],
      "stateMutability": "nonpayable",
      "type": "constructor"
    },
    {
      "inputs": [
        {
          "internalType": "uint256",
          "name": "currentBalance",
          "type": "uint256"
        },
        {
          "internalType": "uint256",
          "name": "numPlayers",
          "type": "uint256"
        },
        {
          "internalType": "uint256",
          "name": "lotteryState",
          "type": "uint256"
        }
      ],
      "name": "Lottery__UpkeepNotNeeded",
      "type": "error"
    },
    {
      "inputs": [
        {
          "internalType": "address",
          "name": "have",
          "type": "address"
        },
        {
          "internalType": "address",
          "name": "want",
          "type": "address"
        }
      ],
      "name": "OnlyCoordinatorCanFulfill",
      "type": "error"
    },
    {
      "anonymous": false,
      "inputs": [
        {
          "indexed": true,
          "internalType": "address",
          "name": "player",
          "type": "address"
        }
      ],
      "name": "LotteryEnter",
      "type": "event"
    },
    {
      "anonymous": false,
      "inputs": [
        {
          "indexed": true,
          "internalType": "uint256",
          "name": "requestId",
          "type": "uint256"
        }
      ],
      "name": "RequestedLotteryWinner",
      "type": "event"
    },
    {
      "anonymous": false,
      "inputs": [
        {
          "indexed": true,
          "internalType": "address",
          "name": "player",
          "type": "address"
        }
      ],
      "name": "WinnerPicked",
      "type": "event"
    },
    {
      "anonymous": false,
      "inputs": [
        {
          "indexed": false,
          "internalType": "string",
          "name": "food",
          "type": "string"
        }
      ],
      "name": "newFoodieAdded",
      "type": "event"
    },
    {
      "inputs": [
        {
          "internalType": "string",
          "name": "_food",
          "type": "string"
        }
      ],
      "name": "addFoodie",
      "outputs": [],
      "stateMutability": "nonpayable",
      "type": "function"
    },
    {
      "inputs": [
        {
          "internalType": "bytes",
          "name": "",
          "type": "bytes"
        }
      ],
      "name": "checkUpkeep",
      "outputs": [
        {
          "internalType": "bool",
          "name": "upkeepNeeded",
          "type": "bool"
        },
        {
          "internalType": "bytes",
          "name": "",
          "type": "bytes"
        }
      ],
      "stateMutability": "view",
      "type": "function"
    },
    {
      "inputs": [
        {
          "internalType": "uint256",
          "name": "index",
          "type": "uint256"
        }
      ],
      "name": "getDonator",
      "outputs": [
        {
          "internalType": "address",
          "name": "",
          "type": "address"
        }
      ],
      "stateMutability": "view",
      "type": "function"
    },
    {
      "inputs": [],
      "name": "getInterval",
      "outputs": [
        {
          "internalType": "uint256",
          "name": "",
          "type": "uint256"
        }
      ],
      "stateMutability": "view",
      "type": "function"
    },
    {
      "inputs": [],
      "name": "getLastTimeStamp",
      "outputs": [
        {
          "internalType": "uint256",
          "name": "",
          "type": "uint256"
        }
      ],
      "stateMutability": "view",
      "type": "function"
    },
    {
      "inputs": [],
      "name": "getLotteryState",
      "outputs": [
        {
          "internalType": "enum DLottery.LotteryState",
          "name": "",
          "type": "uint8"
        }
      ],
      "stateMutability": "view",
      "type": "function"
    },
    {
      "inputs": [],
      "name": "getNumWords",
      "outputs": [
        {
          "internalType": "uint256",
          "name": "",
          "type": "uint256"
        }
      ],
      "stateMutability": "pure",
      "type": "function"
    },
    {
      "inputs": [],
      "name": "getNumberOfDonators",
      "outputs": [
        {
          "internalType": "uint256",
          "name": "",
          "type": "uint256"
        }
      ],
      "stateMutability": "view",
      "type": "function"
    },
    {
      "inputs": [],
      "name": "getNumberOfFoodies",
      "outputs": [
        {
          "internalType": "uint256",
          "name": "",
          "type": "uint256"
        }
      ],
      "stateMutability": "view",
      "type": "function"
    },
    {
      "inputs": [],
      "name": "getRecentWinner",
      "outputs": [
        {
          "internalType": "address",
          "name": "",
          "type": "address"
        }
      ],
      "stateMutability": "view",
      "type": "function"
    },
    {
      "inputs": [],
      "name": "getRequestConfirmations",
      "outputs": [
        {
          "internalType": "uint256",
          "name": "",
          "type": "uint256"
        }
      ],
      "stateMutability": "pure",
      "type": "function"
    },
    {
      "inputs": [
        {
          "internalType": "bytes",
          "name": "",
          "type": "bytes"
        }
      ],
      "name": "performUpkeep",
      "outputs": [],
      "stateMutability": "nonpayable",
      "type": "function"
    },
    {
      "inputs": [
        {
          "internalType": "uint256",
          "name": "requestId",
          "type": "uint256"
        },
        {
          "internalType": "uint256[]",
          "name": "randomWords",
          "type": "uint256[]"
        }
      ],
      "name": "rawFulfillRandomWords",
      "outputs": [],
      "stateMutability": "nonpayable",
      "type": "function"
    },
    {
      "inputs": [
        {
          "internalType": "address",
          "name": "_addressDonate",
          "type": "address"
        }
      ],
      "name": "setAddress",
      "outputs": [],
      "stateMutability": "nonpayable",
      "type": "function"
    }
  ],
  "transactionHash": "0xf4b31076ceea1970aaf97281be05b2d3aac041507751cc70fd776e609d928f22",
  "args": [
    "0xe7f1725E7734CE288F8367e1Bb143E90bb3F0512",
    "1",
    "0xd89b2bf150e3b9e13446986e571fb9cab24b13cea0a43ea20a6049a85cc807cc",
    "30",
    "100000000000000000",
    "500000"
  ],
  "numDeployments": 1,
  "solcInputHash": "9e85c4fe3e0fdc92ee43a86fa8584718",
  "bytecode": "0x6101406040523480156200001257600080fd5b5060405162001c8e38038062001c8e8339818101604052810190620000389190620001ab565b858073ffffffffffffffffffffffffffffffffffffffff1660808173ffffffffffffffffffffffffffffffffffffffff1660601b81525050508573ffffffffffffffffffffffffffffffffffffffff1660a08173ffffffffffffffffffffffffffffffffffffffff1660601b815250508360e081815250508261012081815250508467ffffffffffffffff1660c08167ffffffffffffffff1660c01b81525050816003819055506000600760006101000a81548160ff02191690836001811115620001085762000107620002b3565b5b0217905550426000819055508063ffffffff166101008163ffffffff1660e01b8152505050505050505062000369565b6000815190506200014981620002e7565b92915050565b600081519050620001608162000301565b92915050565b60008151905062000177816200031b565b92915050565b6000815190506200018e8162000335565b92915050565b600081519050620001a5816200034f565b92915050565b60008060008060008060c08789031215620001cb57620001ca620002e2565b5b6000620001db89828a0162000138565b9650506020620001ee89828a0162000194565b95505060406200020189828a016200014f565b94505060606200021489828a0162000166565b93505060806200022789828a0162000166565b92505060a06200023a89828a016200017d565b9150509295509295509295565b6000620002548262000265565b9050919050565b6000819050919050565b600073ffffffffffffffffffffffffffffffffffffffff82169050919050565b6000819050919050565b600063ffffffff82169050919050565b600067ffffffffffffffff82169050919050565b7f4e487b7100000000000000000000000000000000000000000000000000000000600052602160045260246000fd5b600080fd5b620002f28162000247565b8114620002fe57600080fd5b50565b6200030c816200025b565b81146200031857600080fd5b50565b620003268162000285565b81146200033257600080fd5b50565b62000340816200028f565b81146200034c57600080fd5b50565b6200035a816200029f565b81146200036657600080fd5b50565b60805160601c60a05160601c60c05160c01c60e0516101005160e01c610120516118bb620003d36000396000818161075e015261094401526000610542015260006104fe0152600061051f015260006104c20152600081816102b2015261030601526118bb6000f3fe608060405234801561001057600080fd5b50600436106100ea5760003560e01c80636b68c03c1161008c57806391ad27b41161006657806391ad27b41461023c578063c1c244e81461025a578063e30081a014610278578063ec6c4aa514610294576100ea565b80636b68c03c146101bd5780636e04ff0d146101db5780637b66e17f1461020c576100ea565b806353a2c19a116100c857806353a2c19a1461014557806358f3bf2c146101635780635d1471d2146101815780635f1b0fd81461019f576100ea565b80631fe543e3146100ef5780634585e33b1461010b578063473f1ddc14610127575b600080fd5b610109600480360381019061010491906111c0565b6102b0565b005b61012560048036038101906101209190611087565b610370565b005b61012f61060a565b60405161013c9190611306565b60405180910390f35b61014d610634565b60405161015a919061140a565b60405180910390f35b61016b610643565b604051610178919061140a565b60405180910390f35b610189610650565b604051610196919061140a565b60405180910390f35b6101a76106f7565b6040516101b4919061140a565b60405180910390f35b6101c5610704565b6040516101d291906113cd565b60405180910390f35b6101f560048036038101906101f091906110d4565b61071b565b60405161020392919061134a565b60405180910390f35b61022660048036038101906102219190611166565b61088c565b6040516102339190611306565b60405180910390f35b610244610940565b604051610251919061140a565b60405180910390f35b610262610968565b60405161026f919061140a565b60405180910390f35b610292600480360381019061028d919061102d565b610971565b005b6102ae60048036038101906102a9919061111d565b6109b5565b005b7f000000000000000000000000000000000000000000000000000000000000000073ffffffffffffffffffffffffffffffffffffffff163373ffffffffffffffffffffffffffffffffffffffff161461036257337f00000000000000000000000000000000000000000000000000000000000000006040517f1cf993f4000000000000000000000000000000000000000000000000000000008152600401610359929190611321565b60405180910390fd5b61036c8282610aab565b5050565b600061038a6040518060200160405280600081525061071b565b509050806104935747600460009054906101000a900473ffffffffffffffffffffffffffffffffffffffff1673ffffffffffffffffffffffffffffffffffffffff166317be85c36040518163ffffffff1660e01b815260040160206040518083038186803b1580156103fb57600080fd5b505afa15801561040f573d6000803e3d6000fd5b505050506040513d601f19601f820116820180604052508101906104339190611193565b600760009054906101000a900460ff16600181111561045557610454611758565b5b6040517f6e195f2500000000000000000000000000000000000000000000000000000000815260040161048a93929190611425565b60405180910390fd5b6001600760006101000a81548160ff021916908360018111156104b9576104b8611758565b5b021790555060007f000000000000000000000000000000000000000000000000000000000000000073ffffffffffffffffffffffffffffffffffffffff16635d3b1d307f00000000000000000000000000000000000000000000000000000000000000007f000000000000000000000000000000000000000000000000000000000000000060037f000000000000000000000000000000000000000000000000000000000000000060016040518663ffffffff1660e01b815260040161058395949392919061137a565b602060405180830381600087803b15801561059d57600080fd5b505af11580156105b1573d6000803e3d6000fd5b505050506040513d601f19601f820116820180604052508101906105d59190611193565b9050807febf56642252004c18a776f30d528e7a0ce8c5db14b6596fb6550f630c8a24c6c60405160405180910390a250505050565b6000600160009054906101000a900473ffffffffffffffffffffffffffffffffffffffff16905090565b6000600163ffffffff16905090565b6000600680549050905090565b6000600460009054906101000a900473ffffffffffffffffffffffffffffffffffffffff1673ffffffffffffffffffffffffffffffffffffffff166317be85c36040518163ffffffff1660e01b815260040160206040518083038186803b1580156106ba57600080fd5b505afa1580156106ce573d6000803e3d6000fd5b505050506040513d601f19601f820116820180604052508101906106f29190611193565b905090565b6000600361ffff16905090565b6000600760009054906101000a900460ff16905090565b600060606000600760009054906101000a900460ff16600181111561074357610742611758565b5b6000600181111561075757610756611758565b5b14905060007f00000000000000000000000000000000000000000000000000000000000000006000544261078b9190611547565b119050600080600460009054906101000a900473ffffffffffffffffffffffffffffffffffffffff1673ffffffffffffffffffffffffffffffffffffffff166317be85c36040518163ffffffff1660e01b815260040160206040518083038186803b1580156107f957600080fd5b505afa15801561080d573d6000803e3d6000fd5b505050506040513d601f19601f820116820180604052508101906108319190611193565b11905081801561083e5750825b80156108475750805b9450846040518060400160405280600381526020017f307830000000000000000000000000000000000000000000000000000000000081525094509450505050915091565b6000600460009054906101000a900473ffffffffffffffffffffffffffffffffffffffff1673ffffffffffffffffffffffffffffffffffffffff1663faa381fb836040518263ffffffff1660e01b81526004016108e9919061140a565b60206040518083038186803b15801561090157600080fd5b505afa158015610915573d6000803e3d6000fd5b505050506040513d601f19601f82011682018060405250810190610939919061105a565b9050919050565b60007f0000000000000000000000000000000000000000000000000000000000000000905090565b60008054905090565b80600460006101000a81548173ffffffffffffffffffffffffffffffffffffffff021916908373ffffffffffffffffffffffffffffffffffffffff16021790555050565b600660405180604001604052808381526020013373ffffffffffffffffffffffffffffffffffffffff1681525090806001815401808255809150506001900390600052602060002090600202016000909190919091506000820151816000019080519060200190610a27929190610d62565b5060208201518160010160006101000a81548173ffffffffffffffffffffffffffffffffffffffff021916908373ffffffffffffffffffffffffffffffffffffffff16021790555050507fccf86efcc90097a2d5a29c8e393a02ca85d56e446d6817e7fdb9b0870030e7e581604051610aa091906113e8565b60405180910390a150565b6000600460009054906101000a900473ffffffffffffffffffffffffffffffffffffffff1673ffffffffffffffffffffffffffffffffffffffff166317be85c36040518163ffffffff1660e01b815260040160206040518083038186803b158015610b1557600080fd5b505afa158015610b29573d6000803e3d6000fd5b505050506040513d601f19601f82011682018060405250810190610b4d9190611193565b82600081518110610b6157610b606117b6565b5b6020026020010151610b7391906116c9565b90506000600460009054906101000a900473ffffffffffffffffffffffffffffffffffffffff1673ffffffffffffffffffffffffffffffffffffffff1663faa381fb836040518263ffffffff1660e01b8152600401610bd2919061140a565b60206040518083038186803b158015610bea57600080fd5b505afa158015610bfe573d6000803e3d6000fd5b505050506040513d601f19601f82011682018060405250810190610c22919061105a565b905080600160006101000a81548173ffffffffffffffffffffffffffffffffffffffff021916908373ffffffffffffffffffffffffffffffffffffffff160217905550600460009054906101000a900473ffffffffffffffffffffffffffffffffffffffff1673ffffffffffffffffffffffffffffffffffffffff166365fbc7f06040518163ffffffff1660e01b8152600401600060405180830381600087803b158015610ccf57600080fd5b505af1158015610ce3573d6000803e3d6000fd5b505050506000600760006101000a81548160ff02191690836001811115610d0d57610d0c611758565b5b0217905550426000819055508073ffffffffffffffffffffffffffffffffffffffff167f5b690ec4a06fe979403046eaeea5b3ce38524683c3001f662c8b5a829632f7df60405160405180910390a250505050565b828054610d6e90611666565b90600052602060002090601f016020900481019282610d905760008555610dd7565b82601f10610da957805160ff1916838001178555610dd7565b82800160010185558215610dd7579182015b82811115610dd6578251825591602001919060010190610dbb565b5b509050610de49190610de8565b5090565b5b80821115610e01576000816000905550600101610de9565b5090565b6000610e18610e1384611481565b61145c565b90508083825260208201905082856020860282011115610e3b57610e3a61181e565b5b60005b85811015610e6b5781610e518882611003565b845260208401935060208301925050600181019050610e3e565b5050509392505050565b6000610e88610e83846114ad565b61145c565b905082815260208101848484011115610ea457610ea3611823565b5b610eaf848285611624565b509392505050565b6000610eca610ec5846114de565b61145c565b905082815260208101848484011115610ee657610ee5611823565b5b610ef1848285611624565b509392505050565b600081359050610f0881611857565b92915050565b600081519050610f1d81611857565b92915050565b600082601f830112610f3857610f37611819565b5b8135610f48848260208601610e05565b91505092915050565b60008083601f840112610f6757610f66611819565b5b8235905067ffffffffffffffff811115610f8457610f83611814565b5b602083019150836001820283011115610fa057610f9f61181e565b5b9250929050565b600082601f830112610fbc57610fbb611819565b5b8135610fcc848260208601610e75565b91505092915050565b600082601f830112610fea57610fe9611819565b5b8135610ffa848260208601610eb7565b91505092915050565b6000813590506110128161186e565b92915050565b6000815190506110278161186e565b92915050565b6000602082840312156110435761104261182d565b5b600061105184828501610ef9565b91505092915050565b6000602082840312156110705761106f61182d565b5b600061107e84828501610f0e565b91505092915050565b6000806020838503121561109e5761109d61182d565b5b600083013567ffffffffffffffff8111156110bc576110bb611828565b5b6110c885828601610f51565b92509250509250929050565b6000602082840312156110ea576110e961182d565b5b600082013567ffffffffffffffff81111561110857611107611828565b5b61111484828501610fa7565b91505092915050565b6000602082840312156111335761113261182d565b5b600082013567ffffffffffffffff81111561115157611150611828565b5b61115d84828501610fd5565b91505092915050565b60006020828403121561117c5761117b61182d565b5b600061118a84828501611003565b91505092915050565b6000602082840312156111a9576111a861182d565b5b60006111b784828501611018565b91505092915050565b600080604083850312156111d7576111d661182d565b5b60006111e585828601611003565b925050602083013567ffffffffffffffff81111561120657611205611828565b5b61121285828601610f23565b9150509250929050565b6112258161157b565b82525050565b6112348161158d565b82525050565b61124381611599565b82525050565b60006112548261150f565b61125e8185611525565b935061126e818560208601611633565b61127781611832565b840191505092915050565b61128b81611612565b82525050565b600061129c8261151a565b6112a68185611536565b93506112b6818560208601611633565b6112bf81611832565b840191505092915050565b6112d3816115b6565b82525050565b6112e2816115e4565b82525050565b6112f1816115ee565b82525050565b611300816115fe565b82525050565b600060208201905061131b600083018461121c565b92915050565b6000604082019050611336600083018561121c565b611343602083018461121c565b9392505050565b600060408201905061135f600083018561122b565b81810360208301526113718184611249565b90509392505050565b600060a08201905061138f600083018861123a565b61139c60208301876112f7565b6113a960408301866112ca565b6113b660608301856112e8565b6113c360808301846112e8565b9695505050505050565b60006020820190506113e26000830184611282565b92915050565b600060208201905081810360008301526114028184611291565b905092915050565b600060208201905061141f60008301846112d9565b92915050565b600060608201905061143a60008301866112d9565b61144760208301856112d9565b61145460408301846112d9565b949350505050565b6000611466611477565b90506114728282611698565b919050565b6000604051905090565b600067ffffffffffffffff82111561149c5761149b6117e5565b5b602082029050602081019050919050565b600067ffffffffffffffff8211156114c8576114c76117e5565b5b6114d182611832565b9050602081019050919050565b600067ffffffffffffffff8211156114f9576114f86117e5565b5b61150282611832565b9050602081019050919050565b600081519050919050565b600081519050919050565b600082825260208201905092915050565b600082825260208201905092915050565b6000611552826115e4565b915061155d836115e4565b9250828210156115705761156f6116fa565b5b828203905092915050565b6000611586826115c4565b9050919050565b60008115159050919050565b6000819050919050565b60008190506115b182611843565b919050565b600061ffff82169050919050565b600073ffffffffffffffffffffffffffffffffffffffff82169050919050565b6000819050919050565b600063ffffffff82169050919050565b600067ffffffffffffffff82169050919050565b600061161d826115a3565b9050919050565b82818337600083830152505050565b60005b83811015611651578082015181840152602081019050611636565b83811115611660576000848401525b50505050565b6000600282049050600182168061167e57607f821691505b6020821081141561169257611691611787565b5b50919050565b6116a182611832565b810181811067ffffffffffffffff821117156116c0576116bf6117e5565b5b80604052505050565b60006116d4826115e4565b91506116df836115e4565b9250826116ef576116ee611729565b5b828206905092915050565b7f4e487b7100000000000000000000000000000000000000000000000000000000600052601160045260246000fd5b7f4e487b7100000000000000000000000000000000000000000000000000000000600052601260045260246000fd5b7f4e487b7100000000000000000000000000000000000000000000000000000000600052602160045260246000fd5b7f4e487b7100000000000000000000000000000000000000000000000000000000600052602260045260246000fd5b7f4e487b7100000000000000000000000000000000000000000000000000000000600052603260045260246000fd5b7f4e487b7100000000000000000000000000000000000000000000000000000000600052604160045260246000fd5b600080fd5b600080fd5b600080fd5b600080fd5b600080fd5b600080fd5b6000601f19601f8301169050919050565b6002811061185457611853611758565b5b50565b6118608161157b565b811461186b57600080fd5b50565b611877816115e4565b811461188257600080fd5b5056fea2646970667358221220616cfa20f5100eb339c55097f0147669472b2365c5b4447a689ff770530eb02964736f6c63430008070033",
  "devdoc": {
    "kind": "dev",
    "methods": {},
    "version": 1
  },
  "userdoc": {
    "kind": "user",
    "methods": {
      "getLotteryState()": {
        "notice": "Getter Functions "
      }
    },
    "version": 1
  },
  "storageLayout": {
    "storage": [
      {
        "astId": 1059,
        "contract": "contracts/DLottery.sol:DLottery",
        "label": "s_lastTimeStamp",
        "offset": 0,
        "slot": "0",
        "type": "t_uint256"
      },
      {
        "astId": 1061,
        "contract": "contracts/DLottery.sol:DLottery",
        "label": "s_recentWinner",
        "offset": 0,
        "slot": "1",
        "type": "t_address"
      },
      {
        "astId": 1063,
        "contract": "contracts/DLottery.sol:DLottery",
        "label": "s_currentWinner",
        "offset": 0,
        "slot": "2",
        "type": "t_address"
      },
      {
        "astId": 1065,
        "contract": "contracts/DLottery.sol:DLottery",
        "label": "i_entranceFee",
        "offset": 0,
        "slot": "3",
        "type": "t_uint256"
      },
      {
        "astId": 1068,
        "contract": "contracts/DLottery.sol:DLottery",
        "label": "donate",
        "offset": 0,
        "slot": "4",
        "type": "t_contract(IDonate)1482"
      },
      {
        "astId": 1071,
        "contract": "contracts/DLottery.sol:DLottery",
        "label": "s_donators",
        "offset": 0,
        "slot": "5",
        "type": "t_array(t_address_payable)dyn_storage"
      },
      {
        "astId": 1075,
        "contract": "contracts/DLottery.sol:DLottery",
        "label": "s_foodies",
        "offset": 0,
        "slot": "6",
        "type": "t_array(t_struct(Foodie)1099_storage)dyn_storage"
      },
      {
        "astId": 1078,
        "contract": "contracts/DLottery.sol:DLottery",
        "label": "s_lotteryState",
        "offset": 0,
        "slot": "7",
        "type": "t_enum(LotteryState)1040"
      }
    ],
    "types": {
      "t_address": {
        "encoding": "inplace",
        "label": "address",
        "numberOfBytes": "20"
      },
      "t_address_payable": {
        "encoding": "inplace",
        "label": "address payable",
        "numberOfBytes": "20"
      },
      "t_array(t_address_payable)dyn_storage": {
        "base": "t_address_payable",
        "encoding": "dynamic_array",
        "label": "address payable[]",
        "numberOfBytes": "32"
      },
      "t_array(t_struct(Foodie)1099_storage)dyn_storage": {
        "base": "t_struct(Foodie)1099_storage",
        "encoding": "dynamic_array",
        "label": "struct DLottery.Foodie[]",
        "numberOfBytes": "32"
      },
      "t_contract(IDonate)1482": {
        "encoding": "inplace",
        "label": "contract IDonate",
        "numberOfBytes": "20"
      },
      "t_enum(LotteryState)1040": {
        "encoding": "inplace",
        "label": "enum DLottery.LotteryState",
        "numberOfBytes": "1"
      },
      "t_string_storage": {
        "encoding": "bytes",
        "label": "string",
        "numberOfBytes": "32"
      },
      "t_struct(Foodie)1099_storage": {
        "encoding": "inplace",
        "label": "struct DLottery.Foodie",
        "members": [
          {
            "astId": 1096,
            "contract": "contracts/DLottery.sol:DLottery",
            "label": "food",
            "offset": 0,
            "slot": "0",
            "type": "t_string_storage"
          },
          {
            "astId": 1098,
            "contract": "contracts/DLottery.sol:DLottery",
            "label": "owner",
            "offset": 0,
            "slot": "1",
            "type": "t_address"
          }
        ],
        "numberOfBytes": "64"
      },
      "t_uint256": {
        "encoding": "inplace",
        "label": "uint256",
        "numberOfBytes": "32"
      }
    }
  }
}